:100000000C9429030C94612E0C9461030C946103ED
:100010000C9461030C9461030C9461030C946103D0
:100020000C9461030C9461030C949E2C0C94762D1B
:100030000C94532C0C9461030C9461030C94610395
:100040000C9461030C9461030C9461030C946103A0
:100050000C9461030C947A2C0C9461030C9461034E
:100060000C9461030C9461030C9461030C94610380
:100070000C9461030C9461030C9461030C94610370
:100080000C9461030C9461030C9461030C94610360
:100090000C9461030C9461030C9461030C94610350
:1000A0000C9461030C9461030C94610305010980B5
:1000B000A101850319012AB700150126B700950192
:1000C00075108100C0050C0901A101850419012AE0
:1000D000A002150126A002950175108100C00660DE
:1000E000FF0961A1010962150026FF00952075082E
:1000F00081020963150026FF00952075089102C052
:1001000005010906A101050719E029E715002501E8
:10011000950875018102950175088101050719008F
:1001200029FF150026FF00950675088100050819AE
:1001300001290515002501950575019102950175A7
:10014000039101C0000CEA80FFFF00000000000CDA
:100150001EDADAFF00000000000C6AFFFFFF00005B
:10016000000009025B00030100A0FA09040000017D
:10017000030101000921110100012244000705814A
:100180000308000109040100020300000009211115
:100190000100012222000705820320000107050358
:1001A00003200001090402000103000000092111DD
:1001B0000100012232000705840320000112010022
:1001C000020000000810CB56531005010200011A6E
:1001D0000349007200690073002000520065007638
:1001E000002E0020003500610000000E034B00656A
:1001F000006500620069006F000000040309042923
:10020000001E001F002000210022002B0014001AF5
:1002100000080015001700E00004001600070009A0
:10022000000A00E1001D001B000600190005000087
:10023000000000E30021522800AE002A002700261B
:10024000002500240023004C00130012000C0018AD
:10025000001C00340033000F000E000D000B00E501
:10026000003800370036001000110000000000E6E2
:100270000022522C0000520000000000000000008C
:1002800000000035023500520000000000000000B0
:1002900000500051004F000000000001000000006D
:1002A000000000000000000000000000000100014C
:1002B000000100000000000000000000000000003D
:1002C00000000000002D0256005700000000000052
:1002D00000310031022E000100000000000000008B
:1002E0000000000000000000000000010000523A81
:1002F000003B003C003D003E003F000000000000CD
:1003000000000000004A00000000000000000000A3
:10031000004D00010000000000000000000000008F
:1003200000000000000000010001004500440043FF
:1003300000420041004000000000000000000030CA
:10034000002F00000000000000000030022F02011A
:10035000000000000000002702260200000000004C
:1003600000010001000052A900AA0062526152ABD4
:1003700000AC0062526152AB00AC0062526152228A
:1003800023252628292A2C2D2F3032333536383A8A
:100390003B3D3E4042434547494A4C4E50515355E0
:1003A00057595A5C5E6062646668696B6D6F717301
:1003B0007577797B7D7F81838587898A8C8E909202
:1003C0009496989A9C9E9FA1A3A5A7A8AAACAEAF0D
:1003D000B1B3B4B6B8B9BBBCBEBFC1C2C3C5C6C752
:1003E000C9CACBCCCDCED0D1D2D2D3D4D5D6D7D703
:1003F000D8D9D9DADADBDBDBDCDCDCDCDCDDDDDD4B
:10040000DDDCDCDCDCDCDBDBDBDADAD9D9D8D7D746
:10041000D6D5D4D3D2D2D1D0CECDCCCBCAC9C7C6F3
:10042000C5C3C2C1BFBEBCBBB9B8B6B4B3B1AFAE31
:10043000ACAAA8A7A5A3A19F9E9C9A9896949290D7
:100440008E8C8A89878583817F7D7B7977757371AF
:100450006F6D6B6968666462605E5C5A595755538C
:1004600051504E4C4A4947454342403E3D3B3A3845
:1004700036353332302F2D2C2A292826252322FFEA
:10048000AA7F5540000101010101010101010202A1
:100490000202020202020203030303030303030432
:1004A00004040404040405050505050606060606FD
:1004B000070707070708080808090909090A0A0AB7
:1004C0000B0B0B0C0C0C0D0D0D0E0E0E0F0F0F1059
:1004D00010111111121213131414151516161717E3
:1004E000181819191A1A1B1B1C1D1D1E1E1F20204F
:1004F000212222232424252626272829292A2B2C99
:100500002D2D2E2F30313232333435363738393ABB
:100510003B3C3D3E3F404142434445464748494AB3
:100520004C4D4E4F50515354555658595A5B5D5E81
:100530005F616264656668696B6C6D6F707273751C
:1005400077787A7B7D7E8082838587888A8C8E8F80
:1005500091939596989A9C9EA0A2A3A5A7A9ABADAE
:10056000AFB1B3B5B7BABCBEC0C2C4C6C9CBCDCF9C
:10057000D1D4D6D8DBDDDFE2E4E7E9EBEEF0F3F54A
:10058000F8FAFDFF58014E01440100001E0F05005E
:10059000047F3F1F643214643214783C1E1E140A18
:1005A0000500000000000000000000000000000046
:1005B000000000000000000000000000000000003B
:1005C00000000000007E0F00D4FFFFFFC700000006
:1005D0007800000000000000002A2B280000000026
:1005E00000000000000000000000000029000000E2
:1005F000002C1E3420212224342627252E362D3788
:1006000038271E1F202122232425263333362E3758
:10061000381F0405060708090A0B0C0D0E0F1011F0
:1006200012131415161718191A1B1C1D2F313023FD
:100630002D350405060708090A0B0C0D0E0F1011C5
:1006400012131415161718191A1B1C1D2F313035CB
:100650004C0011241FBECFEFDAE0DEBFCDBF04B6E1
:1006600003FE18C08091830390918403A0918503B9
:10067000B09186038730904BA740B04B59F410924D
:100680008303109284031092850310928603E0E0A6
:10069000F8E3099523E0A8EFB1E001C01D92A3386B
:1006A000B207E1F711E0A0E0B1E0E2EFF3E602C04B
:1006B00005900D92A83FB107D9F70E9497250C9499
:1006C0009A310C9400009B01677091E001C0990F72
:1006D0006A95EAF763E0369527956A95E1F7B901DF
:1006E000660F771F260F371FFA01E20FF31F40E056
:1006F00050E0682F70E08191DF0111979B01042E7B
:1007000002C0369527950A94E2F721702195282793
:10071000292328272C934F5F5F4F4330510559F70A
:1007200008959C01A82FA77083E0369527958A9598
:10073000E1F7C901880F991F820F931FFB01E80F92
:10074000F91F40E050E080E0219130E00A2E02C025
:10075000369527950A94E2F721703327042E01C0BD
:10076000220F0A94EAF7822B4F5F5F4F4330510507
:1007700059F70895282F862F9A3070F4263058F4B0
:10078000622F70E026E0929F600D711D112442E1FE
:1007900053E00E94630308959C5F9230E0F7622F5C
:1007A00070E04FE053E0F5CF292F9A3068F486309F
:1007B00090F490E062E173E036E0239F800D911D9C
:1007C00011240E94910308952C5F223020F46FE0E1
:1007D00073E090E0F6CF80E008958091430390911C
:1007E0004203981301C008958F5F8770FACF982F46
:1007F0009095809139038923809339030895803E31
:100800009105D1F1C8F48133910509F47FC048F412
:100810008932910509F46FC08A32910509F47DC0CF
:10082000089589339105E1F082389105C9F0853347
:10083000910509F45BC00895843E9105D1F148F417
:10084000823E910531F1833E910541F181EE90E0C8
:100850000895863E9105C1F1873E9105E1F1089525
:1008600020913F032370211165C02091400323FF95
:1008700014C089E290E0089520913F0320FD43C019
:100880003091400330FF09C024FF4EC080E090E06B
:10089000089520913F0322FDF7CF089520913F0353
:1008A00022FD45C03091400330FD44C024FFF5CF08
:1008B000EDCF2091400321FFF0CF80913F0384FDD5
:1008C000E5CF87EE90E0089520913F0323FFE5CF29
:1008D00024FDDCCFF6CF20913F0323FD2EC03091C5
:1008E000400331FFE3CF84EE90E0089520913F0371
:1008F00025FFD3CFBECF20913F0325FD21C02091FE
:10090000400323FFCACF89E390E0089520913F037D
:1009100026FFC3CF8AE290E0089520913F0326FF8F
:10092000BCCF81E390E0089583EE90E0089582EEDD
:1009300090E0089580EE90E0089586EE90E00895AE
:1009400085E390E0AACF90913F0392FF10C041E071
:10095000282F2471243009F040E031E0282F28713D
:10096000283009F030E0431711F02CE0822793FF84
:1009700010C041E0282F2471243109F040E031E01B
:10098000282F2871283109F030E0431711F02CE0AE
:1009900082273091400330FF10C051E0282F217191
:1009A000213009F050E041E0282F2871283009F06B
:1009B00040E0541711F029E0822731FF10C041E0D8
:1009C000282F2171213109F040E031E0282F2871D2
:1009D000283109F030E0431711F029E0822794FD17
:1009E000877E08951F93CF93DF930E94FF03EC014E
:1009F000811522E5920708F053C0811540E5940760
:100A000008F0DDC0803E9105F8F48D3C910508F0BA
:100A1000AEC0883A910580F4853A910508F099C0F6
:100A20008130910521F00497813A910550F4CE016F
:100A3000DF91CF911F910895885A91094B9708F43F
:100A40008BC0C0E0D0E0F3CF811550E49507F8F4F7
:100A5000C11580E2D80708F0CBC0C83ED10538F3F5
:100A6000CE019A9581159F4160F78D2F0E94A304B6
:100A7000182FCE0199270E94FF03212F30E0322F3B
:100A80002227E901CC27DF71C82BD92BD0CF99279A
:100A90000E94FF03CC27DF70C82BD92BD06AC7CFA9
:100AA000803842E59407C8F5803652E5950708F08E
:100AB00067C0C03482E5D807B0F08C2F8695869544
:100AC000877020E2829FC0011124C37021E030E0D2
:100AD000A90102C0440F551FCA95E2F7EA01C82BCD
:100AE000D92BDC68A4CFC03252E5D50708F041C04D
:100AF0008C2F8695869520E2829FC0011124C370B9
:100B000021E030E0A90102C0440F551FCA95E2F769
:100B1000EA01C82BD92BDD688ACF803C52E59507C6
:100B200060F48F71C03AD24508F03FC090E0982F32
:100B30008827EC01C46FD06A7ACF805C9245809799
:100B400008F07FCFDC2FCC27CC27DF71C06FD06AB5
:100B50006ECFA497D0646BCFC85AD0E0CC0FDD1F06
:100B6000CF53DE4F0990D881C02DD46460CFD065BB
:100B70005ECFCF71D0E0DC2FCC27C16FD06A57CFCA
:100B800086958695877020E2829FC0011124C370EC
:100B900021E030E0A90102C0440F551FCA95E2F7D9
:100BA000EA01C82BD92BDA6842CF0E94A304C82FD0
:100BB000D0E0DC2FCC27CC27DF71D06238CF8F710B
:100BC0000E94A30465E0D695C7956A95E1F7CF70BA
:100BD000D0E0DC2FCC27282F30E084FF05C054E084
:100BE000220F331F5A95E1F7C22BD32BD0691FCFA9
:100BF0008D2F8F710E94A304182FCE0199270E9478
:100C0000FF03212F30E0322F222722273F71282B8C
:100C1000392BE901D2CF80E00895F894E82FE295CE
:100C2000EF70F0E041A18F7021E030E0B90102C027
:100C3000660F771F8A95E2F7CB01962F9095942344
:100C400091A392A1892B82A3789408950895A0E09E
:100C5000B0E0EDE2F6E00C94842FE901E42FF0E03F
:100C6000EC57FB4F61110BC0E4919E2F8E2F8983AF
:100C7000E8839A83CDB7DEB7EAE00C94A02F282F43
:100C800030E0062F10E0F491EF2F86E0829F6001A4
:100C9000839FD00C1124EE24EA94F12CC601B701F5
:100CA0000E94DD2F220F331F45E5469FC001479F5D
:100CB000900D1124281B390B822F880F280FC70194
:100CC000801B910BF89FA001F99F500D1124952FC7
:100CD000209F5001219FB00C1124AB2CBB24D701C5
:100CE000AA19BB095D01FA9DD001FB9DB00D11242D
:100CF0008B2F5701A21AB1089501209F5001219F07
:100D0000B00C309FB00C1124AB2CBB24EA18FB08AC
:100D1000FE9D9001FF9D300D112463307105C9F0D7
:100D20001CEFC11613E0D10650F46130710509F4CF
:100D30009ECF6230710589F08E2FE32F98CF6430FB
:100D4000710571F066307105B9F3E52F9B2F8F2F78
:100D50008ECFEB2F852F9F2F8ACF852F932F87CF75
:100D6000832FE52FF8CF80913103843028F48370EE
:100D700084608093310308958C3AE8F38370886A25
:100D8000F8CF21E030E0A90102C0440F551F8A9539
:100D9000E2F7CA0120913003662361F0242B2093EF
:100DA000300380912F03806180932F0381E0809333
:100DB000A702089580952823F2CF1F93CF93DF9346
:100DC000182F81110DC060E081E00E94C10660E033
:100DD00082E00E94C106812FDF91CF911F9108957B
:100DE000C82FD0E0BE0175956795617081E00E94C3
:100DF000C106D595C795D595C7956C2F6170E8CF7D
:100E00000E94DD0680933D03089521E030E001C09B
:100E1000220F8A95EAF780913D03822B0E940007FA
:100E2000089521E030E0A90102C0440F551F8A95C2
:100E3000E2F7CA01809590913D0389230E94000743
:100E4000089590913E038095892380933E03282F37
:100E5000277021110DC0891759F09091400392FF1E
:100E600007C08695869586950E94110710923E03CD
:100E7000089590913D0321E030E0F90101C0EE0FAB
:100E80008A95EAF7D90102C0AA0FBB1F6A95E2F75B
:100E9000EA2B01C0220F4A95EAF7892F8E23E81327
:100EA00005C0892F822B0E94000708952095822F6C
:100EB0008923F9CFCF93C82F682F811101C061E03A
:100EC000617080E00E94C106C0933C03CF910895F9
:100ED000EDE2F3E011828281846082830895FA0159
:100EE000882311F009950895FB01FCCFA8E0B0E03C
:100EF000ECE7F7E00C94862F8630F0F481111DC0EA
:100F0000809180008F7780938000809186009091FF
:100F100087008091860090918700E0E0F0E0CF01AB
:100F200069E070E00E94DD2F709389006093880073
:100F30002896E8E00C94A22F85E0909180009068BC
:100F400090938000A0918600B0918700282F30E018
:100F50000E948B3169837A838B839C8325E030E008
:100F600040E050E00E94693169017A01F901809105
:100F70008600909187006CE070E00E94DD2F6C1578
:100F80007D0568F68091860090918700009186002B
:100F900010918700209186003091870066E070E014
:100FA0000E94DD2FC60ED71EE11CF11CD701C60121
:100FB00045E0880F991FAA1FBB1F4A95D1F7898367
:100FC0009A83AB83BC83C80166E070E00E94DD2F8A
:100FD00040E050E0260F371F411D511D69817A8185
:100FE0008B819C810E94693129833A834B835C8386
:100FF000E0918600F0918700CA01B9010E94B32FE9
:10100000DF019B01AC010E9456316D837E838F838B
:1010100098879B01AC0169817A818B819C810E94B8
:10102000B32F69837A838B839C83DC01CB015FE0E0
:10103000B695A795979587955A95D1F740918600D3
:101040005091870060E070E0481759076A077B07F6
:1010500020F48091860090918700BC0165CF863096
:1010600008F085E020912A032770982F990F990F97
:10107000990F922B90932A0321E0983008F420E0F6
:1010800090912A0320FB90F990932A030E947607FF
:101090000895FC01680F791F8FEF91E3E617F707BA
:1010A00009F408952191822728E030E087FF08C0E5
:1010B000880F89272150310921153105B9F7EECF65
:1010C000880FF8CF80910103882359F0E091050340
:1010D000F0910603309729F00190F081E02D0995F9
:1010E000089580E00895A3E0B0E0E9E7F8E00C940B
:1010F0008C2F9C01809126029091270282179307E2
:10110000A1F03093270220932602E0910503F0918D
:101110000603309751F083E089833B832A83008460
:10112000F185E02DCE01019609952396E2E00C941D
:10113000A82FA3E0B0E0EFE9F8E00C948C2F9C011D
:10114000809124029091250282179307A1F0309399
:10115000250220932402E0910503F09106033097C5
:1011600051F084E089833B832A830084F185E02D5C
:10117000CE01019609952396E2E00C94A82F9C01DC
:10118000FC0132968FEF90E04191461751F08F3F6E
:1011900019F4411101C0892F9F5F9630A9F78F3F45
:1011A00009F40895280F311D87FD3A95F9016283EE
:1011B00008959C01FC013296285F3F4F8191861370
:1011C00003C0DF0111971C92E217F307B9F70895E6
:1011D0002FB7F8948091E0029091E102A091E20291
:1011E000B091E3022FBF0895A4E0B0E0EAEFF8E089
:1011F0000C948C2F8FB7F8942091E0023091E1028B
:101200004091E2025091E30229833A834B835C834D
:101210008FBF69817A818B819C812496E2E00C9456
:10122000A82FA4E0B0E0E7E1F9E00C948C2F8091C6
:101230000103882371F00E94F40869837A838B8309
:101240009C8369817A818B819C812496E2E00C9455
:10125000A82F0E94F40869837A838B839C838091F2
:10126000FD029091FE02A091FF02B091000329813E
:101270003A814B815C81280F391F4A1F5B1F2983EC
:101280003A834B835C83DDCF0E94110908958091DE
:101290000103882319F00E94E80808950E941109AB
:1012A000CB0108959C014FB7F8948091E002909192
:1012B000E102A091E202B091E3024FBF821B930BC7
:1012C000089580912302089508950895FC019B01DB
:1012D0008091190290911A028617970740F0672BA8
:1012E00029F48091E8008E778093E800C90140E0FE
:1012F000009741F4411106C08091E80082FF2FC0A1
:1013000080E008952091C2022223A9F12530A9F19D
:101310002091E80023FD2DC02091E80022FDECCFB4
:101320002091E80020FFE4CF3091F3002091F200FB
:10133000009719F02830310558F041E02830310588
:1013400009F040E02091E8002E772093E800D0CF0C
:1013500041914093F10001972F5F3F4FE9CF80917A
:10136000C202882341F0853041F08091E80083FF7C
:10137000C3CF81E0089582E0089583E008958091CD
:10138000130287FF13C08091E80082FF06C080919E
:10139000E8008B778093E80004C08091C20281113D
:1013A000F2CF08958091C2028823D9F38091E8009A
:1013B00080FFF8CF8091E8008E77ECCF2091E40099
:1013C0003091E50095E6A9018091EC0081708823B9
:1013D00031F08091E80080FF06C080E00895209100
:1013E000E80022FD1BC08091C202882391F0853065
:1013F00091F08091EB0085FD10C02091E4003091C8
:10140000E5004217530701F391509111DCCF84E0BE
:10141000089582E0089583E0089581E00895E8ED5D
:10142000F0E080818E7F80831092E2001092DA00DB
:101430001092E100A0EEB0E08C9181608C938081ED
:101440008F77808319BCA7EDB0E08C918E7F8C9351
:1014500080818F7E8083109212020895982FE42F4E
:10146000E2709093E900891308C0762F242F50E092
:10147000E11111C091E0980FF4CF7091EC00209130
:10148000ED005091F00021FD06C09F5F973049F7B5
:101490008093E90008953091EB003E7F3093EB009C
:1014A0003091ED003D7F3093ED003091EB003160E5
:1014B0003093EB007093EC002093ED005093F0001C
:1014C0002091EE0027FDE1CF0895A0E0B0E0EBE62B
:1014D000FAE00C94862FC8EDD0E088818F7E888357
:1014E000E7EDF0E080818160808384E082BF81E06D
:1014F0008093120288818E7F888302EE10E0F801CB
:1015000010821092DA0081EEC82ED12CF6011082E2
:1015100088818F77888388818068888388818F7DA0
:10152000888319BC1092C2021092110210929B0281
:101530001092100290EEE92EF12CF70180818B7F42
:10154000808388818160888342E060E080E00E943F
:101550002E0AF60180818E7F8083F8018081816070
:101560008083808188608083F70180818E7F808383
:10157000888180618883CDB7DEB7E8E00C94A22F24
:10158000E09143039091420327E0E91302C080E019
:101590000895AE2FB0E02E9FF0011124EC5BFC4FBC
:1015A0003181361306C03081381303C035813413BE
:1015B00004C0FD013196E770E8CF81E0089581E035
:1015C0008093E00080E28093D8001092C9008FE100
:1015D0009EE40197F1F700C0000087E090EBDC018A
:1015E0008093830390938403A0938503B093860331
:1015F00088E19CE00FB6F894A895809360000FBE38
:1016000090936000FFCF0F931F93CF93DF93EB0175
:101610008A019091C202943079F58093E9008FEFAE
:101620009091E80095FD07C095ED9A95F1F70000BF
:1016300081508111F5CF8091E80085FF1DC00E9487
:10164000DE09811114C08091E80085FD06C08091FB
:10165000E8008E778093E800F2CF88818093F100D4
:10166000015011090115110511F02196ECCF80915F
:10167000E8008E778093E800DF91CF911F910F9162
:101680000895CF93DF93D82FC92F48E050E0682FFB
:10169000792F81E00E94030B88E0ED2FFC2FABE156
:1016A000B2E001900D928A95E1F7DF91CF91089514
:1016B000BC0143E050E084E00E94030B0895A0E0E9
:1016C000B0E0E5E6FBE00C94842FF82EE92EB62E70
:1016D000A72E8A0180910E02CC24C394D12C8A308B
:1016E00018F48AE0C82ED12CC1E0D0E06B2D7A2D01
:1016F0008F2D9E2DF8010995811116C02196CC16CB
:10170000DD0694F0CC9FC001CD9F900D900D11246B
:1017100020E030E045E34A95F1F700002F5F3F4FAE
:1017200028173907B9F7E2CFCDB7DEB7EAE00C9456
:10173000A02F9091400392FB222720F9281779F0DF
:1017400080FB92F99093400360913F0370914003B6
:1017500084E090E00E94213182E00E9421070895F8
:10176000682F86E090E00E940331089580912A035B
:1017700080FD13C0816080932A03813019F489E0D1
:1017800080932A0380912A030E94B00B80912A0340
:101790008695869586950E947607089580912A03FE
:1017A00080FF08C08E7F80932A030E94B00B80E0E8
:1017B0000E94760708951F93CF93DF93962F122FE1
:1017C000632F8430D8F49A30C8F44630B8F4C42F6C
:1017D000D0E0CC0FDD1F2CE0929FC00DD11D112455
:1017E00098E7899FC00DD11D1124CE0189960E94D2
:1017F0000331612FCE018A960E940331DF91CF9190
:101800001F9108951F93CF93DF93962F122F632F6D
:101810008430D0F49230C0F428E0829FE00111249B
:1018200024E0929FC0011124C80FD91FC75FDD4F6C
:10183000CE01442369F00E94033181E090E0612FE2
:101840008C0F9D1F0E940331DF91CF911F9108954E
:1018500002960E94033183E090E0F1CF8F929F9235
:10186000BF92CF92DF92EF92FF920F931F93CF938D
:10187000DF9307E613E0E12CF12CC0E04701D0E054
:101880001AC021E030E0C33021F0F6018591949137
:101890009C014B2D6D2F8C2F0E94DB0BB39422E00B
:1018A000C20ED11C36E0B312ECCFDF5F86E0880EAB
:1018B000911CDA3049F0C401880F991F9C01215016
:1018C0003E4F6901B12CDDCFC33089F521E030E016
:1018D00041E060E083E00E94020C21E030E040E063
:1018E00060E083E00E94020C21E030E041E061E032
:1018F00083E00E94020C21E030E040E061E08C2FA8
:101900000E94020CCF5F085F1F4F3CE3E30EF11C07
:10191000C43009F0B3CFDF91CF911F910F91FF90A9
:10192000EF90DF90CF90BF909F908F900895F80137
:101930002591349141E060E08C2F0E94020CF80167
:1019400032962591349140E060E08C2F0E94020C89
:10195000F80134962591349141E061E08C2F0E948A
:10196000020CF8013696859194919C01C6CFCF93D5
:10197000DF93C9E2D2E060E0CE010E9403312196FC
:10198000C11584E0D807B9F7DF91CF910895882376
:1019900081F064E285E290E00E94033162E086E239
:1019A00090E00E94033168E187E290E00E940331F9
:1019B00008956FEF85E290E00E9403316FEF86E2B9
:1019C00090E00E9403316FEFEFCF80E00E94C70CE0
:1019D00060E088E290E00E9403310E942E0C0E9499
:1019E000B70C81E00E94C70C08950F931F93CF930B
:1019F000DF93843030F56A3020F5463010F5C42F7F
:101A0000D0E0CC0FDD1F2CE0629FC00DD11D112452
:101A100038E7839FC00DD11D1124CE0189960E9405
:101A2000DF30082F10E0102F0027CE018A960E9489
:101A3000DF309801282BC901DF91CF911F910F91C1
:101A4000089580E090E0F8CF0F931F93CF93DF933A
:101A5000843078F5623068F528E0829F8001112497
:101A600034E0639FB0011124060F171F075F1D4F5D
:101A7000C8014423A1F00E94DF30C82FD0E0DC2F42
:101A8000CC2781E090E0800F911F0E94DF309E0103
:101A9000282BC901DF91CF911F910F9108950296D4
:101AA0000E94DF30C82FD0E0DC2FCC2783E090E00D
:101AB000EACF80E090E0EECF7A3048F4663070F400
:101AC000843060F4462F672F0E94F50C08957D3F07
:101AD00041F4623018F441E0843050F080E090E04E
:101AE00008957C3FD9F76230C8F78430B8F740E0FA
:101AF0000E94240D0895A0E0B0E0E1E8FDE00C9420
:101B0000872F7C0100913D0380913C03082BC3E0AB
:101B1000D0E010E0C8010C2E02C0959587950A947C
:101B2000E2F780FD09C02197A8F7D12C8D2DCDB704
:101B3000DEB7E7E00C94A32FDC2EB7018C2F0E94B8
:101B40005C0D0E94F204019771F3F0CF0F931F9385
:101B5000CF93FC01858100811181882391F0662358
:101B600081F0C8010E947B0DC82F682FC8010E9418
:101B7000BA03B8018C2F0E945C0DCF911F910F9179
:101B80000895C8010E94D403C82FF3CFCF93DF93E9
:101B9000D82FC92F0E947B0D6D2F7C2F0E945C0DCA
:101BA0000E94F204DF91CF910895FC018481882383
:101BB000A1F0808191810E94C60D282F92959F707F
:101BC000963091F060F4925F9F70923030F481E033
:101BD000203F79F030F4283E30F080E004C09A5F76
:101BE000F3CF243FD1F7089581E0283E18F0213F3C
:101BF000F9CF0895089585E290E00E94DF308432A5
:101C000089F486E290E00E94DF30823059F487E266
:101C100090E00E94DF3091E0883109F090E0892F58
:101C20008170089580E0FCCF80E090E00E94ED306C
:101C3000863E9E4F19F40E94FB0D089580E00895A2
:101C40008091390390914103892B40913A034423B9
:101C500089F090E02CEF31E0F90150812F5F3F4F88
:101C600051119F5F52E022303507B1F79111109268
:101C70003A03842B8093FA0148E050E067E073E078
:101C80008AEF91E00E94C930892BA9F088E0EAEF41
:101C9000F1E0A7E0B3E001900D928A95E1F7E091C1
:101CA0000503F0910603309731F00280F381E02DB7
:101CB0008AEF91E00995089510923903ECEFF1E075
:101CC00086E0DF011D928A95E9F780E090E00E94AE
:101CD000730880E090E00E949908109241030E94EE
:101CE000200E08950E945C0E2FEF84E39CE02150AB
:101CF00080409040E1F700C0000088E19CE00FB612
:101D0000F894A895809360000FBE90936000FFCF79
:101D1000AAE2B0E0EEE8FEE00C948B2F83E192E0C3
:101D2000FC0101962091F100208322E08B31920783
:101D3000B9F780911402893009F456C0C8F4823092
:101D400009F4B3C0833009F482C0813071F180910D
:101D5000E80083FFE7C080911302909114029A304B
:101D600008F0E0C0E92FF0E0E456FE4C0C9405309A
:101D70008A3009F489C08B3051F780911302813287
:101D800031F78091170290911802892B01F7809109
:101D9000E800877F8093E8000E94BF0980911502C8
:101DA000809304010E945C0ED2CF80911302813A8D
:101DB00071F68091E800877F8093E8008091170298
:101DC00090911802892B61F060E080E090E070E073
:101DD0000E9466098091E8008B778093E800B7CF76
:101DE00068E08BE192E0F3CF80911302813209F039
:101DF000AECF80911702909118028D7F892B09F048
:101E0000A6CF8091E800877F8093E8008091E8006A
:101E100082FF18C09091F3008091F200029731F494
:101E20008091F100813011F0863021F48091F10031
:101E3000809323028091E8008B778093E8000E94D2
:101E4000BF0985CF8091C2028111E0CF80CF809100
:101E50001302813A09F07BCF80911702909118020A
:101E6000892B09F074CF8091E800877F8093E80088
:101E70008091E80080FFFCCF809104018093F10005
:101E80008091E8008E77D9CF80911302813209F0DA
:101E90005ECF8091E800877F8093E8000E94BF09B1
:101EA0008091160280930F0252CF80911302813AE3
:101EB00009F04DCF8091E800877F8093E800809102
:101EC000E80080FFFCCF80910F02D8CF803889F0E6
:101ED000823841F5809117028F70873018F5809312
:101EE000E9008091EB0085FB882780F91092E900DA
:101EF00006C08091100290919B0291118260909196
:101F0000E800977F9093E8008093F1001092F10031
:101F10008091E8008E7723C0811116C08091150250
:101F2000813011F18091E80083FF0AC08091E800C0
:101F3000877F8093E8008091EB0080628093EB00C4
:101F4000AA96E3E00C94A72F823061F780911502E6
:101F5000882389F01092E9008091E800877F8093C0
:101F6000E8000E94BF09DECF81E0933009F080E0F5
:101F700080939B02EFCF809117028F702FEF280F75
:101F8000263080F68093E9002091EB0020FFE2CF1D
:101F9000933031F48091EB0080628093EB00DACFD4
:101FA0009091EB0090619093EB0021E030E0A9016B
:101FB00002C0440F551F8A95E2F74093EA00109241
:101FC000EA008091EB008860E8CF8111ABCF1091DF
:101FD00015021F778091E3008078812B8093E300C6
:101FE0008091E800877F8093E8000E94BF0980917C
:101FF000E80080FFFCCF8091E30080688093E300DD
:1020000083E0111101C082E08093C2028BCF80581F
:10201000823008F087CF40911502509116024C3D56
:1020200083E0580799F583E08A838AE289834FB772
:10203000F894DE01139620E03EE051E2E32FF0E059
:1020400050935700849120FF03C082958F703F5FAB
:102050008F708A30C8F0895C90E08D939D932F5FDC
:10206000243161F74FBF8091E800877F8093E800BB
:102070006AE270E0CE0101960E9466098091E80054
:102080008B778093E8004ECF805DE6CF809117027A
:1020900090911802252F33272330310509F44AC0C7
:1020A00078F52130310509F479C08BE590E0E2E65E
:1020B000F1E02230310509F035CF2091E800277F8B
:1020C0002093E8002091190230911A028217930799
:1020D00008F49C0140E02115310509F064C041116C
:1020E00062C08091E80082FDC9CF8091C20288233E
:1020F00029F2853019F28091E80083FFF2CFBECF3C
:102100002132310509F43BC02232310509F00ACFF2
:102110008330910508F006CFFC01EE0FFF1FE85851
:10212000FE4F0190F081E02D8B589E4FDC018C9189
:1021300090E011C0CA019927413089F082309105A1
:10214000B1F0892B09F0EECEEBEFF1E0E4918E2FA8
:1021500090E0EBEFF1E0009709F4E4CEAECFEBEEC8
:10216000F1E0E4918E2F90E0EBEEF1E0F4CFEFECB4
:10217000F1E0E4918E2F90E0EFECF1E0ECCF8330D2
:10218000910508F0CFCEFC01EE0FFF1FE258FE4F85
:102190000190F081E02D89E090E08FCF82E190E026
:1021A000EDEBF1E08ACF8091C202882309F466CF7B
:1021B000853009F463CF8091E80083FD5FCF809183
:1021C000E80082FD8ECF8091E80080FF84CF90915F
:1021D000F3008091F2002115310519F08830910546
:1021E00050F041E0089709F040E08091E8008E77D8
:1021F0008093E80070CF44914093F10031962150D4
:1022000031090196E8CF803809F08CCE8091E80042
:10221000877F8093E800809111028093F10078CE4F
:10222000811180CE10911502123008F07BCE809182
:10223000E800877F8093E800109311020E94BF0995
:102240001123D1F084E08093C20242E061EC81E08E
:102250000E942E0A42E261EC84E00E942E0A42E2D1
:1022600061EC82E00E942E0A42E260EC83E00E9470
:102270002E0A8091C20256CE8091E30087FDE2CF04
:1022800081E0E1CFCF93C82F8823A9F08CEF8C0F8A
:10229000813A98F4ECEFF1E082E092E02191C217EC
:1022A000B1F18E179F07D1F76C2F8AEF91E00E9452
:1022B000BF080E94200ECF91089580E28C0F8830D5
:1022C00068F4C77021E030E001C0220FCA95EAF738
:1022D00080913903822B80933903EBCF8BE58C0FF0
:1022E000833038F42C2F2452330BC9010E94730819
:1022F000E2CFC85ACB31F8F6EC2FF0E0EE0FFF1F1B
:10230000EF53FE4F808191810E949908D4CF6C2FAA
:102310008AEF91E00E94D9080E94200EC5CF682F55
:10232000882341F18CEF860F813A38F48AEF91E0EF
:102330000E94D9080E94200E089580E2860F8830FE
:1023400048F4677081E001C0880F6A95EAF70E943F
:10235000F703F0CF8BE5860F833028F480E090E020
:102360000E9473080895685A6B3120F480E090E071
:102370000E94990808950F931F93CF93C82F00E0F0
:1023800010E0893311F400E510E08C2F0E94421117
:102390000115110539F48C2F0E948F11CF911F91D7
:1023A0000F9108958FE99FE00197F1F700C00000B9
:1023B00001501109EDCF882339F090913903892B11
:1023C000809339030E94200E0895882321F00E94F3
:1023D000F7030E94200E08950F931F93CF93DF936E
:1023E000C62FD42F122F8823A9F060932B030E94AD
:1023F000E80890930D0280930C02C77081E001C041
:10240000880FCA95EAF70E94DB11DF91CF911F91E7
:102410000F91089580912B03681332C080910C02B4
:1024200090910D020E945209883C910548F5CD1308
:102430000CC0812F0E94BB11D77081E001C0880FB2
:10244000DA95EAF70E94E511E0CFC77001E0802F2E
:1024500001C0880FCA95EAF70E94E51180E28D0F4E
:10246000883050F48D2F877001C0000F8A95EAF7ED
:10247000802F0E94DB11DDCF812F0E94BB11C5CFC1
:10248000C77081E001C0880FCA95EAF7DBCFA0E0F2
:10249000B0E0EDE4F2E10C94862F8901D42FC52F32
:1024A0006B017C010E94B306A8016D2F7C2F88E090
:1024B00090E00E94153198014D2F5C2FB601C701A5
:1024C00000E20E943C30622F84E290E00E940331DF
:1024D000CDB7DEB7E8E00C94A22FE1E3F3E08DE2A4
:1024E000808311828FEF828380E883831482ADE240
:1024F000B3E012968C911297836012968C9375813B
:102500002DE230E04FEF50E860E0868197810E9435
:102510004712089580913503833018F48F5F8093BC
:1025200035032091310330913203409133035091B0
:102530003403609135037091360380913703909195
:1025400038030E944712089580913503882319F0BB
:1025500081508093350320913103309132034091B3
:1025600033035091340360913503709136038091A9
:102570003703909138030E9447120895A8E0B0E015
:10258000E4ECF2E10C948C2F66EE7EEF80E090E0BC
:102590000E94213160E082E090E00E94033181E0FE
:1025A00080933C0361E083E090E00E94033160E0AF
:1025B00074E184E090E00E94213160E086E090E0E8
:1025C0000E9403316FEF87E090E00E94033140E00A
:1025D00050E0BA0188E090E00E94153160E084E2AA
:1025E00090E00E94033160E087E190E00E940331B7
:1025F00060E08CE090E00E94033160E08DE090E0CC
:102600000E94033119821A821B821C821D821E8243
:102610001F82188648E050E068E170E0CE01019624
:102620000E94F33040E050E0BA0180E290E00E9466
:10263000153180E00E94C70C0E94E50C40E050E09C
:10264000BA018FE090E00E94153140E050E0BA01FD
:1026500083E190E00E9415312896E2E00C94A82FC7
:102660000E94140E81110AC00E94BE1280912A039A
:102670008470896180932A030E94B00B86E090E009
:102680000E94DF3080932A03803320F087708862B5
:1026900080932A0390912A03892F8170882321F047
:1026A000892F8695869586950E9476070895A0E0E5
:1026B000B0E0EDE5F3E10C94862FFA0169017801B1
:1026C000C82F880FDD0B3097B1F0DE0193E0AA0F21
:1026D000BB1F9A95E1F7A05DBE4F11968D919C911D
:1026E00012978C519D4F4C9150E0E417F50708F478
:1026F000AF010E94D630CE010E94072F182F8823E9
:10270000D1F0E114F104B9F083E0CC0FDD1F8A951C
:10271000E1F7FE01E05DFE4F438150E0E416F5066F
:1027200008F4A701C05DDE4F6C817D816C517D4F47
:10273000C6010E94D630812FCDB7DEB7E8E00C94F9
:10274000A22FA1E0B0E0E7EAF3E10C94812F762E0E
:102750006A014901580101E010E09E012F5F3F4FDF
:1027600040E050E060E070E00E945713182F88238B
:1027700009F442C0D6014D915D916D917C912FB7C6
:10278000F8948091E0029091E102A091E202B09170
:10279000E3022FBF841B950BA60BB70B8436910564
:1027A000A105B10538F4B701C5010E944908998116
:1027B000891711F18701940140E050E060E070E07A
:1027C000872D0E945713182FB701C5010E94490891
:1027D0009981981731F010E0812F2196EDE00C944B
:1027E0009D2F11701123C1F30E94F408F60160833C
:1027F000718382839383F0CFA701B501C4010E9446
:10280000D630EACFA5E0B0E0E8E0F4E10C94862F02
:102810006B0185E0E82EF12C05EE12E09E012F5FA2
:102820003F4F4CED52E061E080E00E94A11388230D
:1028300049F095E0FE013196A7EDB2E001900D92CE
:102840009A95E1F795E0E7EDF2E0D60101900D925F
:102850009A95E1F72596E8E00C94A22FA0E0B0E06D
:10286000E4E3F4E10C94862FEB01942FB901A80165
:10287000C880D980EA80FB80EFB7F8940091E0022D
:102880001091E1022091E2023091E302EFBF0C19B6
:102890001D092E093F09043611052105310510F4E3
:1028A000992371F000E010E020E030E00E9457131F
:1028B000882339F00E94F408688379838A839B8394
:1028C00081E0CDB7DEB7E8E00C94A22FA1E0B0E044
:1028D000ECE6F4E10C948A2F80912A0380FF18C063
:1028E000869586958695898341E09091F0029813AC
:1028F00001C040E001E010E09E012F5F3F4F67EC18
:1029000072E085E00E942E142196E4E00C94A62F3C
:1029100080E0E9CFACE0B0E0E0E9F4E10C948A2F8C
:1029200028E0E1E3F3E0CE010196DC0101900D9295
:102930002A95E1F740912D0330912E0350912F03FA
:102940002091300349873A875B872C8741E09C01BF
:10295000511101C040E00CE010E063EC72E086E051
:102960000E942E14811110922F032C96E4E00C94F7
:10297000A62FA8E0B0E0EFEBF4E10C948A2F409191
:10298000CB025091CC026091CD027091CE022FB754
:10299000F8948091E0029091E102A091E202B0915E
:1029A000E3022FBF841B950BA60BB70B11E08436F7
:1029B0009105A105B10520F10E941109DC01CB01AF
:1029C0000296A11DB11D89839A83AB83BC8300E06D
:1029D00010E020E030E044E050E0BE016F5F7F4F48
:1029E00084E00E945713182F882351F00E94F408A6
:1029F0006093CB027093CC028093CD029093CE0271
:102A0000812F2896E4E00C94A62F609131036695FF
:102A1000669570E04BE050E088E091E00E94BC30A9
:102A2000892B19F481E080932E030E94470990932B
:102A3000AC028093AB0280912F03846080932F03BC
:102A40000895A5E0B0E0E7E2F5E10C947E2F509008
:102A500014019091310390FF31C0809098029090C2
:102A600099028114910409F03FC02091130130E0D4
:102A7000C901880F991F820F931F89599D4F569A3C
:102A80006BB16F7B7BB17064EFB7F894452D50E06C
:102A90009A01220F331F240F351F280F391F821769
:102AA000930709F07DC0EFBF8FE594E00197F1F740
:102AB00000C000002596E0E10C949A2F809115014A
:102AC00040911601282F30E0F901EE0FFF1FE20FB1
:102AD000F31FE959FD4F841708F0BFCF1182108210
:102AE00012828F5F3396F7CF90FFBFCF40903403B1
:102AF000A12CB12C66246394712C80913003930136
:102B00000A2C01C0220F0A94EAF78223882309F4D1
:102B10003BC0F401E590F490E114F10409F4A5CF71
:102B200045E050E0B701CE0101960E94B3308981A3
:102B30008F3F51F12A8190E0280F392F311D2D3020
:102B4000310514F02CE030E06901CC0CDD1CC20E24
:102B5000D31E960129593D4F69018C01000F111FA9
:102B6000080F191F09591D4F0C151D0520F035E0E0
:102B7000E30EF11CD5CF9801442D6C818B810E940E
:102B800027060D5F1F4FF0CF82E0880E911C9FEF4C
:102B9000A91AB90AA8E0AA16B10409F0AECF65CF08
:102BA000DC014D91CD0158E07BB9000000C047FF2A
:102BB0006BB9440F000000C000C000C06BB900C07A
:102BC0005A9591F76CCFA0E0B0E0E9EEF5E10C94F6
:102BD0007E2FFC016280448081E08483EFE7F3E094
:102BE0007490EEEFF3E0E491C0913403C695C158C0
:102BF000D0E0CC0FDD1FCD2FDD27812C75E0972E87
:102C0000AA24AA94B12C55245A94E719EE2EF12C3B
:102C100080911701881638F00E942115CDB7DEB7D4
:102C2000E0E10C949A2FC82CD12C82E0861568F034
:102C30009C9CF0019D9CF00D1124E85DFD4F80915E
:102C400032038083809133038183411023C09C9C95
:102C5000F0019D9CF00D1124E85DFD4F138212825E
:102C6000809115018C0D9D2D911D9C01220F331F0C
:102C7000280F391F29593D4F9C9CF0019D9CF00D58
:102C80001124E85DFD4F4281618180810E94270609
:102C90008394BECF9C9C80019D9C100D1124085DE7
:102CA0001D4FF80183818823F1F081508383589E62
:102CB000C0011124648170E00E94DD2FFB01FF2719
:102CC000E158FC4F8491E82FE7195E9EC001112462
:102CD000B7010E94DD2F80913403689FB001112459
:102CE000F8017283BDCF0E94A330B5010E94F12F7D
:102CF0008C179D070CF0B4CFF2E0F61598F40E9403
:102D0000A330B5010E94F12FF80180830E94A33007
:102D1000209133032695622F70E00E94F12F280F37
:102D2000F80121839C9CF0019D9CF00D1124E85D2D
:102D3000FD4F128280913403893C58F088EC9C9CB2
:102D4000F0019D9CF00D1124E85DFD4F8483838389
:102D500087CF8431A0F784E1F2CFEF92FF921F93E7
:102D6000CF93DF93EC0110E0EE24EA94F12C609114
:102D70001701161770F00E9421159A818C8190FF1F
:102D800025C08F5F8C83DF91CF911F91FF90EF90D3
:102D9000089580911501810F9927991F9C01220F99
:102DA000331F280F391F29593D4F70E0C7010E947A
:102DB000F12F962F8C814091340360913303199F3A
:102DC000800D11240E9427061F5FD1CF8150DACFDA
:102DD000A0E0B0E0EEEEF6E10C94832FEC01A090C1
:102DE00017018C819A8190FD0DC0BB24B394811191
:102DF0000DC08FEF8A0DBB24B3948093660281E0EF
:102E00008C8304C0BB24BA948823B9F3E12CF12C41
:102E1000EA14B8F00E94211590916602E1E0BE121A
:102E200054C0809117018150992319F08FEF890FB9
:102E300091E0809366029C83CDB7DEB7EBE00C9403
:102E40009F2F809115018E0D9F2D911D8C01000FDC
:102E5000111F080F191F09591D4FF8011182108207
:102E6000128234E0C32ED12C912C80916602890D00
:102E70008D303CF16CE00E94CF2F892F082E000C82
:102E8000990B8E159F0591F4809134038C9DA001C0
:102E90008D9D500D11245595479555954795980151
:102EA00060913303809132030E9427069B0CF1E06E
:102EB000CF1AD108C114D104C1F68FEFE81AF80A6D
:102EC000A7CF87FFDBCF8A0DD9CF892F90E001965E
:102ED0006091170170E00E94F12F982FAACF0F93F5
:102EE0001F93CF93DF93EC018C81811109C081E0A6
:102EF0008C831092650292E0909307018093060103
:102F00001091150120911601812F90E0FC01EE0F28
:102F1000FF1FE80FF91FE959FD4F821750F100E03C
:102F200060911701061758F10E9421158091060142
:102F300020916502280F2093650290910701980F58
:102F400090930701191654F4022E000C330B409194
:102F500017014150550B2417350734F081958093A4
:102F60000601813009F41C82DF91CF911F910F91EE
:102F700008951182108212828F5F3396CECF202F58
:102F800030E070E0C9010E94F12F810F90E0409184
:102F90006502042E000C550BFC01EE0FFF1FE80F1D
:102FA000F91F24173507ACF040910701042E000CDF
:102FB000550B421753076CF09F0129593D4F409123
:102FC000340360913303809132030E9427060F5F20
:102FD000A7CFE959FD4F118210821282F8CFAEE0DF
:102FE000B0E0E5EFF7E10C94882F8D879E87AD85E3
:102FF000BE8514961C91212F30E0D9010E948B319F
:103000009B01AC010E94563169837A838B839C8338
:10301000E0E2F0E0E11BF109A5E5B0E09B01AC01C5
:103020000E94563169877A878B879C879F01DF01D1
:103030000E9412309B01AC010E9461316D837E833E
:103040008F8398879B01AC0189819A81AB81BC8178
:10305000280F391F4A1F5B1F69857A858B859C85E0
:103060000E946931022F30E00A3248F5A901440F6D
:10307000551F420F531F55954795142F1095F12C4E
:1030800085E5E82EE01A80911701F81630F10E94CC
:103090002115AD85BE8514969C9181E0992319F088
:1030A000903219F48FEF8093050180910501890F0B
:1030B000ED85FE8584832E96E6E00C94A42F85E5AD
:1030C00090E0821B930BAC01440F551F480F591F12
:1030D00057FFD1CF4F5F5F4FCECF8E2DF1FC802FAA
:1030E000409115014F0D5527551F9A01220F331F8F
:1030F000240F351F29593D4F412F609133030E9402
:103100002706F394C0CF0F931F93CF93DF93EC0167
:1031100000E010E040911701842F90E00817190794
:103120006CF00E9421158C8190E0019681709927A6
:103130008C83DF91CF911F910F910895809115019C
:10314000800F912F911D9C01220F331F280F391FD3
:1031500029593D4F9C8160913303809132034695FC
:1031600050E0041715074CF4992349F040913403BB
:103170000E9427060F5F1F4FCDCF9923B9F340E080
:10318000F7CFE1E3F3E080818E7F80830E946807C0
:10319000EDE2F3E08281816082830E94211508952F
:1031A0009091310390FF11C090911501509116013B
:1031B000292F30E0F901EE0FFF1FE20FF31FE9594D
:1031C000FD4F951718F00E942115089581836083A3
:1031D00042839F5F3396F5CFA3E0B0E0E2EFF8E1E2
:1031E0000C948A2F8C018091640281110AC09E0187
:1031F0002F5F3F4F4FEF6FEF0E9427068A8180932A
:103200006402F8016481613049F06230D1F080914C
:10321000640240E0662331F040E015C06091640232
:1032200040E080E00E94D018F801848190E001968F
:1032300063E070E00E94F12F84832396E4E00C9415
:10324000A62F4091640280E060E0ECCFA3E0B0E004
:10325000ECE2F9E10C948C2F9091310390FF0AC0BD
:103260009E012F5F3F4F0E9427064B8169818A8113
:103270000E94D0182396E2E00C94A82FCF93DF93FE
:10328000EC01EC81F0E0E158FC4F4491E1E3F3E024
:10329000628181810E9426198C818F5F8C83DF91EE
:1032A000CF910895CF93DF93EC01E1E3F3E0438105
:1032B00062818C810E9426198C818F5F8C83DF91C3
:1032C000CF910895A3E0B0E0E8E6F9E10C94842FF3
:1032D000E82ED62EF42EB22E9091310390FF44C0EA
:1032E00030913203381308C080913303861304C031
:1032F00080913403841729F080912F03826080939A
:103300002F03E92FE695E695AE2FB0E0AC57BE4F00
:103310008C9180932D039C7F943051F5F09234036F
:103320009E012F5F3F4F4F2D6D2D8E2D0E94270642
:103330004B8169818A810E94D0183E2D30933203DF
:10334000D0923303F0923403BB2071F0209131030B
:1033500060913503709136034D2D5F2D80913703B9
:10336000909138030E9447122396EAE00C94A02F14
:10337000823019F4F0903403E0CF8630F9F28930CE
:10338000E9F28931D1F6E9518E2F8170A82EE695A8
:10339000F0E0E158FB4FE491C12C0E2F10E060915A
:1033A0001701C61628F0F09234030E942115C5CFEC
:1033B0002C2D30E0C09EC001C19E900D112470E004
:1033C0000E94DD2F8E2DA11013C0860F9091150144
:1033D000A901490F511D9A01220F331F240F351FD8
:1033E00029593D4F4F2D6D2D0E942706C394D7CFED
:1033F000861BECCF9091310390FF42C0882309F4E3
:1034000040C08B3208F03FC08F73282F220F220F4D
:10341000809131038370282B2093310380912F03F7
:10342000816080932F03662381F0309132034091B5
:1034300033035091340360913503709136038091CA
:103440003703909138030E944712609131036695CB
:10345000669570E04BE050E088E091E00E94BC305F
:10346000892B99F00E94680781E08093AE0220E0EA
:103470004091340360913303809132030E946219BA
:10348000089581E0C2CF8AE2C0CF0E940515ECCF3B
:1034900080913103869586958F5F8B3208F081E0AD
:1034A00061E00E94FA1908959091310396959695DE
:1034B0008FEF890F913009F48AE261E00E94FA19D6
:1034C00008959091310390FF09C0969596959817AD
:1034D00028F0961718F40E94481A089561E00E9497
:1034E000FA190895A8E0B0E0E8E7FAE10C94802F1B
:1034F0006C01DC0114968C91882309F4ABC061E067
:10350000C6010E94A60D8C01F6018581882309F46D
:1035100017C6980137572038310508F037C10031F8
:1035200008F087C08FEF93E00E94DF30811181C0E7
:1035300059E2E52E52E0F52E01114AC01A82198295
:10354000FE01339686E0DF011D928A95E9F74AE095
:10355000642E5701BFEFAB1ABB0AC7010E94DF30D0
:1035600089831A82882309F464C0813009F076C007
:1035700087010E5F1F4FC5010E94DF308A838823B9
:1035800009F457C09FEF980F933088F5E3E0EE0EF3
:10359000F11CC8010E94DF308B83882309F449C0E5
:1035A0001C828E010F5F1F4FD8018C91882389F2F6
:1035B000813009F08EC011969C91119712968C91D2
:1035C000913009F04DC00E5F1F4F0E94BB114EC0DD
:1035D000E114F4E0FF0669F1C7010E94DF309701B2
:1035E0002F5F3F4F79018111F3CF0150A5CF843078
:1035F000B9F432E0E32EF12CC8010F5F1F4F0E9497
:10360000DF30E1E0F0E0EC0FFD1FEE0DFF1D8083E9
:10361000882379F08C3731F4FE01EE0DFF1D128204
:103620007801BFCFFFEFEF1AFF0A27E0E216F1049F
:1036300019F780913E038770882361F0D6011596B3
:103640008C91882339F08091400382FF03C082E08F
:103650000E9421072896EEE00C949C2F7501A1CFC3
:10366000923039F40E5F1F4F0E9442110F5F1F4FBF
:103670009BCF933029F40E5F1F4F0E948F11F6CF1E
:10368000943019F00F5F1F4FF1CF0E5F1F4F20E0F6
:1036900030E0A8014F5F5F4F8053990B8A3091054E
:1036A00060F02115310511F38FE99FE00197F1F7E3
:1036B00000C0000021503109F4CF629EB001639E2A
:1036C000700D11249C01260F371FF80181818A019A
:1036D000E0CFE82FF0E0EF52FA4F7490282F2695B4
:1036E0002695269530E0F901EF53FA4F94918770B3
:1036F000F901EF54FA4FA490B12C082E02C0B594F2
:10370000A7940A94E2F7A1E0AA22BB24F901EF559D
:10371000FA4F8490912C082E02C0959487940A94B5
:10372000E2F7B1E08B229924292F30E002C03595D1
:1037300027958A95E2F720FD0BC0AB28E9F4872D89
:103740000E94BB118114910409F490CF8CE23DCF0B
:1037500081EE0E944211AB2829F4872D0E94BB11F3
:1037600081EE11C086EE0E944211872D0E94BB118E
:1037700086EE0E948F11F4CF86EE0E944211872DB3
:103780000E94BB1186EE0E948F11DCCF0330E8E768
:103790001E0709F474C008F03FC0013028E7120783
:1037A00009F465C0023038E7130709F497C085E0D3
:1037B000011548E7140709F45BC010922B03C801F8
:1037C0009057839708F4D2C082E008372CE712079D
:1037D00009F42EC20A358CE7180709F4C3C208F0B1
:1037E000A7C20130ACE71A0709F4BAC20330BCE73C
:1037F0001B0709F4AFC201151C4709F02CC20E9437
:103800005C0E3FEF44E38CE0315040408040E1F7F4
:1038100000C000000E94DF0A043098E7190709F48D
:1038200049C00530A8E71A0709F462C0F801E85159
:10383000FC47E730F10508F48AC410922B030631E7
:10384000ECE71E0709F0EEC1809139038A7A91E016
:10385000811101C090E090932C0369E2811165E32E
:103860008AEF91E00E94BF080E94200EE2CE80E025
:103870000E942F0880912A030E94B00BDACE80911B
:103880002A03883078F0885080932A0391E08830AA
:1038900008F490E080912A0390FB80F980932A033A
:1038A0000E94B00B80912A038695869586950E948A
:1038B0007607BFCE90912A03892F869586958695A7
:1038C000983240F48F5F880F880F880F9770892B8C
:1038D00080932A0380912A038160E0CF80912A039C
:1038E00080FF03C00E94CE0BA4CE0E94B60BA1CED7
:1038F00080912A038695869586958F5F8F71863095
:1039000008F080E0880F880F880F90912A03977045
:10391000892BBACF26E241EE61EE0E94EC1189CEEE
:1039200027E245EE65EEF9CF26E241EE60EEF5CFF7
:1039300027E245EE64EEF1CF26E241EE62EEEDCFF6
:1039400027E245EE66EEE9CF28E241E0EBCF063113
:10395000BCE71B0709F0D9C080912C0369E28111F3
:1039600065E38AEF91E00E94D9087ECF84E090E081
:103970000E94ED309093400380933F03F801E150A3
:10398000F047E232F10520F4EA55FE4C0C94053084
:1039900080913F03816080933F0360913F0370916A
:1039A000400384E090E00E9421310E945C0E41CEF1
:1039B00080914003886080934003EFCF80913F0364
:1039C0008260E9CF80913F038460E5CF80913F031F
:1039D0008860E1CF809140038160EDCF809140030A
:1039E0008260E9CF80913F038061D5CF80913F0312
:1039F0008062D1CF80913F038064CDCF0E945C0E66
:103A000080913F038068C7CF80913F038C60C3CF14
:103A1000809140038360CFCF80913F038E7FBBCFE7
:103A200080914003877FC7CF80913F038D7FB3CFC5
:103A300080913F038B7FAFCF80913F03877FABCFD8
:103A4000809140038E7FB7CF809140038D7FB3CFAD
:103A500080913F038F7E9FCF80913F038F7D9BCFCF
:103A600080913F038F7B97CF0E945C0E80913F0334
:103A70008F7791CF80913F03837F8DCF80914003DB
:103A80008C7F99CF80913F0382FB992790F921E0A9
:103A9000922790FB82F990FB83F97DCF80914003C0
:103AA000982F909591708E7F892B90FB81F983CF11
:103AB00090913F03892F8F7B96FF80646CCF0E948B
:103AC0005C0E90913F03892F97FB87F9805863CF55
:103AD00061E08EE090E00E9403315FCF60E0F9CFBB
:103AE00090913F03892F8F7E94FF806154CF9091F6
:103AF0003F03892F8E7F90FF81604DCF90914003CF
:103B0000892F877F93FF886056CF80913903827217
:103B1000F801E052F847E531F10508F091C0E853AB
:103B2000FE4C0C9405308091310380FF1EC0282F7D
:103B30002E7F209331033091320340913303509113
:103B4000340360913503709136038091370390916F
:103B500038030E9447120E94680780912F038160FA
:103B600080932F030E94211564CD816080933103DF
:103B700061E0869586950E94FA195BCD44E55AE18D
:103B800068E47AE10E946F0754CD48E45AE164E5A5
:103B90007AE1F8CF48E753E26EE673E2F3CF4EE600
:103BA00053E268E773E2EECF4FE853E262E873E274
:103BB000E9CF42E853E26FE873E2E4CF49EA53E227
:103BC0006CE973E2DFCF4CE953E269EA73E2DACFE2
:103BD00044EA52E16AE872E1D5CF4AE852E164EA88
:103BE00072E1D0CF61E081E0C6CF65E082E00E9463
:103BF000611A1FCD68E086E0FACF6EE089E0F7CF6A
:103C000064E18FE0F4CF67E185E1F1CF61E088E125
:103C1000B2CF62E289E1EBCF61E083E2ACCF6AE24E
:103C200085E2E5CF0737FCE71F0709F0CDCD81E03E
:103C30000E94050743E062E081E00E943907F9CC69
:103C400007373CE7130709F46FC082E008374CE7F9
:103C5000140709F46AC0F6018581E080F1808823A9
:103C600009F484C0C7010E947B0D182F682FC7017B
:103C70000E94BA03B701812F0E945C0D0E94F204DA
:103C80008C01D6011596BC9015971696AC90A2940F
:103C90002FE0A22280913E038770882301F1EB2C54
:103CA000BB20F1F0812F807F803461F080E2800FB3
:103CB0008830A8F0812F807E803221F4023078F0A5
:103CC000AA2069F08091400382FF09C082E00E942F
:103CD000210780913E038770EE24E3948111E12C4B
:103CE000812F82958F70883009F434C108F063C049
:103CF000843008F040C0B12FBF70FB2E823008F432
:103D00006BC0107F103219F0F29480EFF82200237C
:103D100009F499C0013009F4E2C0BB2009F4EEC0F7
:103D2000AA2009F4AEC06EC081E00E94110782CFC4
:103D30000B35FCE71F07C1F00C351C4709F08BCF92
:103D40008091400382FB882780F991E089270E94B7
:103D5000990B81CF6FEF7FEF80E090E00E942131DF
:103D60000E94720E81E0F3CF80E0F1CFC7010E9484
:103D7000D403182F7FCF843009F4D1C0EE20B1F0E6
:103D800080913E0380FD12C0D60115961C92869547
:103D9000869586950E940507C6010E94721A809139
:103DA0003E038695869586950E94110760E0C601C0
:103DB0000E94A60D4FCC893009F43BC18A5F8F70F9
:103DC0008230E0F6023F09F045C1812F8F71B110BA
:103DD0003EC10E940507EBC0103118F0F29490EF3D
:103DE000F922BB20B9F0FF2069F080E2800F883013
:103DF00010F0011109C0809139038F298093390394
:103E00000E94200E802F2FC0809141038F29809324
:103E10004103F6CF802F0E948F11FF2009F4AECF0F
:103E200080E2800F883010F0011104C08F2D0E94B5
:103E3000F70306C0F094809141038F2180934103E2
:103E40000E94200E9BCF8091400382FD16C0BB20B4
:103E500069F0FF2039F0809139038F29809339036D
:103E60000E94200E80E00E94421188CF80E00E94D4
:103E70008F11FF2009F482CFD9CFBB20A1F0A11070
:103E800004C08F2D0E94DB1179CFE1E0AE1276CF16
:103E900080913A039F2D9823F91609F46FCF8F294B
:103EA00080933A036BCFA11069CF8F2D0E94E5114B
:103EB00090913A038F2D8923882329F08F2D8095A7
:103EC000892380933A0380913B039F2D9823992364
:103ED00009F454CFF094F822F0923B034FCFBB206B
:103EE00029F0F5E0FA1508F449CFCBCF24E02A15E4
:103EF00008F444CF8F2D0E94E51140CFAA20D1F3C2
:103F0000093349F43FEF47EE83E0315040408040B1
:103F1000E1F700C00000802F0E948F112FCF812F6A
:103F2000869586958370882361F0813009F026CFCD
:103F3000C8019370B11002C080E090E00E9499081F
:103F40001DCFC8019370B11002C080E090E00E94C4
:103F5000730814CF812F8370811134C0B11027C032
:103F6000402F429546954770440F440F802F8F7025
:103F7000042E01C0880F0A94EAF70071002341F073
:103F80002FE030E001C0220F4A95EAF7022F00959A
:103F9000169516951370123081F0133061F0209150
:103FA0003C03113039F0802B82230E945A070E9473
:103FB0006208E4CE822B802BF8CF802B90913C03BB
:103FC0008927F3CFBB2051F110FFF1CF402F42954D
:103FD00046954770440F440F802F8F70042E01C008
:103FE000880F0A94EAF70071002341F02FE030E0D7
:103FF00001C0220F4A95EAF7022F009516951695F3
:104000001370123089F0133069F020913D031130A4
:1040100041F0802B82230E940007C9CF823038F202
:10402000D5CF822B802BF7CF802B90913D03892712
:10403000F2CF1F70BB2039F0812F0E940507802F1F
:104040000E94DB11B4CF802F0E94E511812F0E94C6
:104050001107ADCF033F70F4003FB9F0013FB9F154
:10406000BB2009F45BC0AA2009F455C0802F0E9430
:1040700042119DCF033FD9F0043F29F1B110F3CF96
:10408000A1105AC0812F8F71E2CFBB2069F094E05C
:104090009A1508F48CCF1F7181E090E0012E01C0C9
:1040A000880F0A94EAF7C1CFA5E0AA16F2CF80E004
:1040B000BB2009F4B0CF1F7181E0012E01C0880F31
:1040C0000A94EAF7A8CF8091400382FD06C0812FB1
:1040D0008F71BB2009F4BBCF7CCEBB2089F01F7150
:1040E000812F0E9405078091400382FF07C0B8E03E
:1040F0001B9FC0011124836080933E03812F69CEF2
:1041000081E00E942107E1E0EA1508F050CF82E04B
:104110000E9421074CCF812F8F715BCEAA2009F41A
:10412000B1CF093349F4FFEF27EE33E0F1502040DF
:104130003040E1F700C00000802F0E948F1137CF80
:10414000F801E851FC47E730F10508F000CCE352F4
:10415000FE4C0C94053080918203803178F480917C
:104160008103882359F0E091430320914203309169
:104170007D0340917C0357E02E1301C008956E2FFC
:1041800070E05E9FF0011124DF01AC5BBC4F149620
:104190008C911497882361F111968C911197831358
:1041A00027C08C91841324C015968C91159781118A
:1041B0001FC012968D919C91A0917E03B0917F03B8
:1041C0008A1B9B0B883C910598F4809182038F7029
:1041D000806180938203E65BFC4F80818F708061F9
:1041E00080838CE793E00E94721A0E94ED03089589
:1041F000FB013196E770C0CFADE0B0E0E2E0F1E264
:104200000C94802F8C0186E0F801DE011896019055
:104210000D928A95E1F7F8017080F580A280B38055
:1042200084819CE7892E93E0992E60908003611031
:1042300018C0882399F0FF2009F413C1C8010E9417
:10424000D50D882309F40DC187E0F801ACE7B3E090
:1042500001900D928A95E1F70E94AB20FF24F39420
:1042600053C0D090810320917E0330917F03A5013C
:10427000421B530BDD2009F4C4C0483C510508F033
:104280007AC0882359F380917D03C180E090820336
:10429000FFE0FE1508F459C0C81215C080917C03D8
:1042A000871111C0F1104BC08E2D8F7080618093EB
:1042B00082038CE793E00E94721A80918203F801D6
:1042C0008683F12C21C0F1103AC040E06C2D872D7F
:1042D0000E94C00A40E06C2D872D0E94C00AF82E73
:1042E0008111EFCF888599850E94C60D292F2295CF
:1042F0002F70903470F49F702230A0F09923B1F0A9
:10430000F8019681903190F48F2D2D96EEE00C946B
:104310009C2F2A5F2F70223068F0C8010E94721A09
:10432000FD2CF2CF992311F0882371F3805E883041
:1043300058F3F3CF803F40F3815F8230F9CF809113
:104340008203816080938203BCCFC8123CC08091FD
:104350007C03871138C0F11036C0F801E682C8012D
:104360000E94721A87E0F801ACE7B3E001900D9269
:104370008A95E1F773CFE0908203FFE0FE1550F0DD
:104380008CE793E00E94721A87E0F40111928A95FB
:10439000E9F797CF882309F461CF90917D03F80165
:1043A0008181981310C080917C0387110CC0F1109B
:1043B0000AC0E682C8010E94721A87E0F4011192D5
:1043C0008A95E9F74BCFC8010E94D50D882309F4DF
:1043D00048C0FF2009F445C080918203803208F470
:1043E00033CF80917C0390917D039A838983BC8233
:1043F000AB826D821E82EF82CE0101960E94721AFC
:1044000023CF483C510508F0BFCF882309F426CFBD
:10441000FF2039F190917D038181981318C080911C
:104420007C03871114C08091820380FD9BCF803173
:1044300008F498CF8683807F803F09F490CF8681EF
:10444000982F907F905F8F70892B868388CFC801CB
:104450000E94D50D8111F8CE8091820381608093F6
:104460008203C8010E94721AF9CEABE1B0E0EBE31F
:10447000F2E20C948B2F4E8B5F8B688F798F8A8F33
:104480009B8F9111109241031D8A86E0FE01769662
:10449000DE011F9601900D928A95E1F78B898823A2
:1044A00029F061E0CE010F960E94A60D87E0FE0183
:1044B0003F96DE01189601900D928A95E1F7CE01A4
:1044C00008960E94FC2081112BC087E0FE013896DF
:1044D000DE01119601900D928A95E1F72091420339
:1044E000409143038C858823D9F030E0C9010196BF
:1044F0008770992750E084179507E9F097E0929F1D
:10450000D001939FB00D1124AC5BBC4FFE013196DE
:1045100001900D929A95E1F7809342030E94ED037A
:1045200017E08091430390914203891312C06B9668
:10453000E3E00C94A72F0E945C0E109242031092AD
:10454000430387E0ECE7F3E0DF011D928A95E9F78A
:10455000E7CF189FC00111248C5B9C4F0E94FC2068
:10456000882329F38091430390E00196877099276F
:1045700080934303D6CFA6E0B0E0E1ECF2E20C94E6
:104580008A2F0E94E8088C01809103039091040314
:104590008017910779F019821A820E94E808BC01FD
:1045A00049815A8180E090E00E94352210930403F3
:1045B000009303032696E4E00C94A62FACE0B0E051
:1045C000E4EEF2E20C948A2F182F8F836623D9F041
:1045D0000DEF08870E94E808BC014F81588582E0F2
:1045E00091E00E94352219830A830E94E808682F0F
:1045F00082E0792F49815A8190E00E9435222C96E1
:10460000E4E00C94A62F0CEF08870E94E808BC0198
:104610004F81588583E091E00E94352219830A83F7
:104620000E94E808682F83E0E4CFA1E0B0E0EBE16E
:10463000F3E20C94852FEE24E394F12C0BEE12E0C0
:104640009E012F5F3F4F43ED52E063E082E00E9406
:10465000A113082F882339F1D12C80E01DC0C09010
:10466000D202CD0C2C2D30E0A90140535D4F7A01D0
:10467000E1E0F0E0EC0FFD1FED0DF11D1081FA01FE
:104680009081191BB12E1B149CF0912F17FD90E007
:10469000191B111118C0D3949091CF02D916F8F2BA
:1046A00081110E944409802F2196E9E00C94A12FEA
:1046B000BA94F70180818F5F808360E08C2D0E9427
:1046C000DE22802FE0CF1F5FF70180818150808341
:1046D00061E08C2D0E94DE22802FDBCFE1E3F3E04E
:1046E000818121E043816281885F0E94621908957F
:1046F000E1E3F3E0818121E04381628188500E94FF
:1047000062190895E1E3F3E0628121E1620F08F4A8
:104710006FEF21E0438181810E9462190895E1E3F6
:10472000F3E0628121E1621B08F460E021E0438153
:1047300081810E9462190895E1E3F3E0438121E160
:10474000420F08F44FEF21E0628181810E946219DB
:104750000895E1E3F3E0438121E1421B08F440E0E6
:1047600021E0628181810E9462190895AAE1B0E08E
:10477000ECEBF3E20C947F2F1E861D86FE013F9624
:1047800088E0DF011D928A95E9F78EE1E82E81E04D
:10479000F82E8E01035F1F4F93E2C92E91E0D92EB0
:1047A0003801AA24A394B12C3EE1832E31E0932E4C
:1047B000F70181917F018F3F09F441C0F894E82F00
:1047C000E295EF70F0E021A18F70A50102C0440FC7
:1047D000551F8A95E2F7CA01922F982B91A392A1B7
:1047E0008095892382A3789400C0E8E1F1E031E06C
:1047F000512C21912F3F09F4A2C0A22FA295AF7096
:10480000A05EB0E08C9190E02F7002C095958795E6
:104810002A95E2F78170811192C0832F582A330FB5
:104820008E169F0631F7F701319780818F3F11F087
:104830000E940D0650EA5A95F1F7D8015C920F5F7D
:104840001F4FCE14DF0409F0B3CF4AE050E0B301AC
:104850008BE892E00E94C9300091960210E0085463
:104860001D4F892B09F46DC08AE0F301ABE8B2E07B
:1048700001900D928A95E1F781E080930B020E94EE
:10488000E80890930A02809309028091010388232B
:1048900009F4AFC01A821982FE01339683E0DF016A
:1048A0001D928A95E9F780910E028A3008F06BC05C
:1048B00042E054E1FE0131967F01BF01C8010E9430
:1048C0005F0B6701882309F482C045E153E2B70119
:1048D000C8010E945F0B882309F479C049EB54E1B9
:1048E000B701C8010E945F0B882309F470C046E637
:1048F00054E1B701C8010E945F0B882309F467C027
:104900004AE854E1B701C8010E945F0B882309F40B
:104910005EC010920E028091950290E045E050E05A
:10492000B60188549D4F0E94C93021E020930802AF
:10493000892B09F03FC06A96EFE00C949B2F80E032
:104940006DCF80910B02882309F49FCF80910902DB
:1049500090910A020E945209059708F496CF45E00B
:1049600050E06BE872E0C8010E94C930892B41F029
:1049700085E0EBE8F2E0D80101900D928A95E1F72D
:1049800010920B0282CF80910602909107020E9442
:104990005209843F914008F08BCF80910802882310
:1049A00051F285E0FE013196DF011D928A95E9F70B
:1049B00010920802A0919502B0E0A854BD4F85E086
:1049C000FE01319601900D928A95E1F7B4CF809166
:1049D0000E028F3F39F40E94E808909307028093FB
:1049E0000602DBCF8F5F80930E028A3008F493CFEC
:1049F000F2CF85E0F801A5EEB2E001900D928A9524
:104A0000E1F765E070E085EE92E00E94490880934E
:104A1000E4024091B40250E06091B30270E0605350
:104A20007D4F8E010F5F1F4FC8010E94D6308981D4
:104A30008093EB0261E070E0C8010E944908809316
:104A4000EA02C090EC02D090ED02E090EE02F0900D
:104A5000EF028091020290910302A0910402B091B2
:104A60000502C816D906EA06FB06B1F0C09202029A
:104A7000D0920302E0920402F09205020E94F40830
:104A8000C61AD70AE80AF90AC092FD02D092FE02BD
:104A9000E092FF02F09200038091F0020E942F0842
:104AA0008CE0E1EFF2E0D80101900D928A95E1F7F8
:104AB0008091F10286958695F090F202E090F302E3
:104AC000D090F4020091FA021091FB029091FC0246
:104AD0001092FB02112309F42ECF14FD90933003A2
:104AE00010FF0BC0998190FF1CC090913103916021
:104AF0009093310360E00E94FA1911FF06C020E094
:104B00004D2D6E2D8F2D0E94621912FF04C00023BF
:104B100059F00E94051513FF0ECF81E08093AE027D
:104B20000ACF0E94C118E9CF0E946807F4CFCDB721
:104B3000DEB7A9970FB6F894DEBF0FBECDBF85B71D
:104B4000806885BF85B7806885BF84B7877F84BF4D
:104B50000FB6F894A89580916000886180936000FA
:104B6000109260000FBE80E890E00FB6F89480933A
:104B70006100909361000FBE8BE096E09093F90185
:104B80008093F8010E940F0A0E94650A8091E2005A
:104B900084608093E20078948091C202882399F027
:104BA0008091E9001091EC001795112717958F70EF
:104BB000182B1092E9008091E80083FD0E94880E76
:104BC0001F701093E90082E084BD93E095BD9AEFD9
:104BD00097BD80936E001092FD021092FE0210921B
:104BE000FF02109200030E94FB0D811102C00E947F
:104BF000E50C8091D80080618093D8002AE12A9545
:104C0000F1F700C01091D9001170111104C00E9479
:104C10000F0A1092C2021093010355985D988FE815
:104C200091E00197F1F700C0000089B1807291E036
:104C3000811101C090E090930203909323018111B0
:104C4000FAC086E08093130186E08093140180917E
:104C5000010381110E94192E8091230191E089277F
:104C60008093B302A92FA81BA093D20280912301A5
:104C70009093B402809123019093CF0280912301FD
:104C8000811106C087EF80932F0186EF80932E015C
:104C900080912F01E82FE295EF70F0E041A18F7035
:104CA00021E030E0B90102C0660F771F8A95E2F774
:104CB000CB01962F9095942391A392A1892B82A347
:104CC00080912E01E82FE295EF70F0E041A18F7006
:104CD000D90102C0AA0FBB1F8A95E2F7CD019A2F16
:104CE0009095942391A392A1892B82A3EFE8F1E000
:104CF0003197F1F700C000001091B4026FE271E04B
:104D00004EE251E035EBE32E32E0F32EFB018E2F25
:104D1000861B811708F491C080912301811124C062
:104D200085E0E8E6F1E0DE01919601900D928A952A
:104D3000E1F785E0FE01B196AEE1B1E001900D92A0
:104D40008A95E1F786E0EEE6F1E0DE01119601904A
:104D50000D928A95E1F786E0FE013196A8E1B1E077
:104D600001900D928A95E1F78091230190E08111E5
:104D700001C095E09093960285E0891B809395028F
:104D80000EE111E023E2E22E21E0F22EF801819102
:104D90008F018F3F11F00E940D06E016F106B1F76A
:104DA00008E111E09EE1E92E91E0F92ED8018D9104
:104DB0008D018F3F11F00E940D06E016F106B1F74C
:104DC0008AE0E8EBF2E0DF01282F1D922A95E9F74F
:104DD000EBE8F2E0DF011D928A95E9F70E94140EDC
:104DE000811102C00E94BE1282E090E00E94DF307A
:104DF00080939C0284E090E00E94ED309093400309
:104E000080933F030E94B623BFEFE6E7F1E0B15085
:104E1000E040F040E1F700C000000E94B62380911E
:104E2000B80280FF32C06FEF7FEF80E090E00E9419
:104E300021310E94DF0A80E005CF0191802F829509
:104E40008F70805E90E0DC012C91DA013D91AD0124
:104E5000832F82958F70805E90E0DC018C9190E0D2
:104E60003F7002C0959587953A95E2F78170880F5B
:104E700030E00F7002C0359527950A95E2F7217052
:104E8000822BD7018D937D0142CF83E090E00E9479
:104E9000DF300E945A0780913D030E94DD06259A6B
:104EA0002D9882E88093800089E1809381008FEFC4
:104EB0009FEF90938700809386000E9430130E949A
:104EC000301380919702811190C00E94140E8111BD
:104ED00004C00E94BE120E946D1288E090E00E9401
:104EE000E7306B017C0184E290E00E94DF30282FE4
:104EF00030E040E050E060E070E080E090E000E210
:104F00000E942130E22FA32EB42EB52FA62FF72F0B
:104F10009701860140E050E0BA01EC29A12AB22AAB
:104F2000B32BA42BF52B862B972BE0933103A09268
:104F30003203B0923303B0933403A0933503F0935C
:104F40003603809337039093380380912F03836057
:104F500080932F03E430C8F50E946D1288E090E042
:104F60000E94E7306B017C0184E290E00E94DF3018
:104F7000282F30E040E050E060E070E080E090E01A
:104F800000E20E9421305901B42FA52FF62FE72F00
:104F90009701860140E050E0BA01AC28B12AB22B5B
:104FA000A32BF42BE52B862B972BA0923103B092E9
:104FB0003203B0933303A0933403F0933503E093AB
:104FC000360380933703909338030E94B3060E9400
:104FD00068078091310380FF05C060E08695869563
:104FE0000E94FA1981E08093970280910103811158
:104FF00002C00E941C2E84E895E090939902809351
:10500000980284E291E0909306038093050318E1EF
:10501000C12ED12C02ECA02E02E0B02E84E0682E2E
:10502000712C8091C202853059F48091C202853082
:1050300009F453C00E945C0E0E9430130E94620863
:105040000E94B6230DE912E0B8EBEB2EB2E0FB2E86
:10505000D701F80191918D9162E0E73AF60709F4E2
:105060008DC09817B9F320900103912CD7018D9032
:105070007D01F80131908F01381441F13824512C11
:1050800044244394842D83218823C1F02220B1F04D
:1050900059829A820E94E8089C838B83F1E0FD8309
:1050A00091E0842D8821811101C090E09E83498187
:1050B0005A816B817C818D810E9435225394440CEE
:1050C00026E05212DFCFF8013197808293946AE094
:1050D0009612CCCF0E94110955C08091C202843033
:1050E00029F180E00E942F0810929A0220E40FB666
:1050F000F894A895C09260000FBE2093600083B71B
:10510000817F846083BF83B7816083BF78948895F3
:1051100083B78E7F83BF0FB6F894A8958091600007
:10512000886180936000109260000FBE80919B02A6
:10513000882309F47ACF0E94B623E8EBF2E081914C
:10514000811104C0AE16BF06D1F76FCF80E189BDD3
:1051500082E189BD09B400FEFDCF8091D8008F7D2A
:105160008093D8008091E00082608093E00080917D
:10517000E00081FDFCCF0E945C0E57CF981373CFE7
:105180000E94BB2280912E03882309F466C080917F
:105190002D03E0913103E695E695E81BE093AD021F
:1051A000823009F06EC0F0E0E356FA4FE4910E2F22
:1051B00010E0AEE3EA2EA9E1FA2E8091AE02882338
:1051C00061F01092AE020E9447099093AC02809366
:1051D000AB021092B0021092AF020E9447099C01EC
:1051E0008091AB029091AC02A901481B590B4F3F33
:1051F0005F4798F54091AA024423B1F01092AA02A9
:105200004091A8025091A902241B350B2F3F3F4724
:1052100058F4405D5A485093A9024093A802209147
:105220002F03286020932F038090AF029090B0024C
:10523000800F911F9093AC028093AB028BEA92E0B7
:10524000F70109958091AF029091B002892B29F462
:10525000892819F081E08093AA028091A70288230F
:1052600069F01092A70280912E03811107C08091EE
:10527000310360E0869586950E94FA19E12C912C05
:10528000E6C008E210E02FEEE22E27E1F22E883190
:1052900009F493CFE8F48F3009F447C060F4863006
:1052A00069F1893009F435C000ED17E0F6E2EF2E20
:1052B000F6E0FF2E82CF8531B9F7F0E0EF56FA4FD6
:1052C000E4910E2F10E05FE6E52E57E1F52E75CF45
:1052D00004EF11E093E8E92E98E1F92E843209F405
:1052E0006CCF853271F18332F9F6EFE8F5E0059184
:1052F00014914CEEE42E48E1F42E5FCFF0E0E65638
:10530000FA4FE4910E2F10E0E2E5EE2EE9E1FE2ED9
:1053100054CFE695F0E0E956FA4FE4910E2F10E0F5
:105320007DEAE72E76E1F72E48CFE695F0E0EC56E1
:10533000FA4FE4910E2F10E068EEE62E66E1F62EAD
:105340003CCF8E2F63E00E94C32FE92FF0E0E4579B
:10535000FA4FE4910E2F10E033EEE32E35E1F32EF9
:105360002CCF0E2D10E0F801E15DFE4F4081E42FBF
:10537000E295EF70E05EF0E02081F801E25DFE4F23
:105380003081E32FE295EF70E05EF0E0808190E005
:105390003F7002C0959587953A95E2F78170880F26
:1053A00030E04F7002C0359527954A95E2F721709D
:1053B000822BD801AB54BD4FEC919E2F937089176F
:1053C00009F444C0EE0FEE0FE82BEC93F090B3021B
:1053D000FE0CEF70F0E0E155FE4F0F541D4F808141
:1053E000D8019C91890F8C93812C84307CF0EF2D17
:1053F000F0E0E053FD4F80818F5F80838090010358
:105400008820B9F060E08F2D0E94DE22F8018081B3
:105410008D3F8CF4EF2DF0E0E053FD4F8081815003
:10542000808380910103882321F061E08F2D0E9409
:10543000DE2288248394D8018C91082E000C990BCD
:10544000B3010E94F12FF80180839828E3948091A2
:10545000B402E81608F485CF91100E9444090E9416
:1054600062089091B702891721F08093B7020E94D9
:10547000F4088091C202843009F0D3CD83E0809398
:10548000E9008091E80082FFCCCD8091E80085FDA5
:1054900006C08091E8008B778093E800C2CD0E941F
:1054A000DE09882379F08091E8008B778093E8000B
:1054B0008981EFEFE80FE53190F5F0E0EC51FE4C1B
:1054C0000C94053080E2E82EF12C8E010F5F1F4F07
:1054D0008091E80085FD0AC08091E8008B77809379
:1054E000E8000E94DE09882399F3DDCF8091F10066
:1054F000D8018C93B1E0EB1AF108E114F10499F2B0
:105500000F5F1F4FE5CF1A828CE08B831AC08A8110
:10551000833049F138F4813061F08230D9F08FEF77
:1055200089830FC08430D9F71B821C821D821E82A2
:1055300008C00E94F4080E940B306B837C838D832B
:105540009E8340E250E0BE016F5F7F4F82E00E9489
:10555000030B67CD88E290E00E94DF301B821C8243
:105560001D828E83EECF8B8190E0DE0114968A300F
:1055700091053CF7FC01FF27E854FD4F20812D9356
:105580000196F5CF8A81823079F0853041F680919D
:105590002A0380FF18C00E94CE0B8091310380FF48
:1055A00015C00E94C118CDCF6B817C818D819E81F9
:1055B0006EA37FA388A799A70E940B3088E290E092
:1055C0000E940331BECF0E94B60BE7CF816080936B
:1055D000310360E0869586950E94FA19B2CF4C811E
:1055E0006B818A810E94F50C9827892798279E83D2
:1055F0008D83A7CF2D813E813227232732274C81EF
:105600006B818A810E94DB0B9CCF0E942E0C99CF6C
:105610009A81913089F5883099F0893041F18B81F8
:10562000813009F08ECF8C8175E0879FC0011124F5
:105630006FEF70E00E94DD2F862F0E942F0881CF30
:105640008B81813029F0823009F07BCF1C8279CFA9
:1056500080912A03869586958695AFEF8A9FC00133
:10566000112465E070E00E94DD2F6C836ACF809189
:105670002A030E94B00B65CF923009F050CF8830DA
:1056800099F1893009F453C08B81833049F1B0F42A
:105690008130E9F0823009F054CF8C81882309F4FD
:1056A00080CF8091310381608093310360E08695E3
:1056B00086950E94FA1960E08C818ECF843009F0C3
:1056C00040CF20E0409134036D818C8106C020E002
:1056D0004C8160913303809132030E94621931CF73
:1056E0008C81809335032DCF8B818330E9F060F47A
:1056F0008130A1F0823009F024CF8091310380FF06
:1057000011C0869586950CC0843009F01ACF80911F
:1057100032038C83809133038D8313CF80913403C4
:105720008C830FCF80E0FCCF80913503F9CF20919F
:10573000310330913203409133035091340360912F
:1057400035037091360380913703909138030E949E
:105750004712F7CE80E18A83F4CE81E08A8387ED19
:10576000D4CE0A811B811027012710278C81480184
:10577000880E911C7E01B5E0EB0EF11C801691069F
:1057800009F4DFCE80E0073DE1E01E0728F4C80100
:10579000875D9D4F0E94DF30D7018D937D010F5FA4
:1057A0001F4FECCF0A811B81102701271027FE0114
:1057B00031967F018C808E0E9F2E911CE814F90487
:1057C00009F4BFCE073DF1E01F0740F4D70114965E
:1057D0006C91C801875D9D4F0E9403310F5F1F4F81
:1057E000BFEFEB1AFB0AEACF0E94B70CAACE84E007
:1057F000B2CF0A811B811027012710278C81480115
:10580000880E911C7E01E5E0EE0EF11C80169106DB
:1058100009F497CE80E0003EF1E01F0720F4C801B4
:1058200089960E94DF30D7018D937D010F5F1F4F56
:10583000EDCF0A811B81102701271027FE01319629
:105840007F018C808E0E9F2E911C8E149F0409F474
:1058500078CE003EF1E01F0738F4D70114966C9122
:10586000C80189960E9403310F5F1F4FBFEFEB1AEB
:10587000FB0AEBCF41E08C81811101C040E06B81DC
:105880008A810E94240DB0CE2D813E8132272327AC
:10589000322741E08C81811101C040E06B818A8117
:1058A0000E94020C4ECE1F921FB61F9211248F939E
:1058B0009F93AF93BF9380919A02811113C08091FF
:1058C000E0029091E102A091E202B091E3024196E0
:1058D000A11DB11D8093E0029093E102A093E2022A
:1058E000B093E302BF91AF919F918F911F901FBE24
:1058F0001F90189578941F921FB61F9211248F93B2
:105900009F93AF93BF938091E0029091E102A091A9
:10591000E202B091E3020196A11DB11D8093E00265
:105920009093E102A093E202B093E302BF91AF91A2
:105930009F918F911F901FBE1F9018951F920F92DD
:105940000FB60F9211242F933F934F935F936F9352
:105950007F938F939F93AF93BF93EF93FF93809128
:10596000E10082FF09C08091E20082FF05C08091C2
:10597000E1008B7F8093E1008091DA0080FF24C0FA
:105980008091D80080FF20C08091DA008E7F8093C4
:10599000DA008091D90080FF9BC080E189BD82E15F
:1059A00089BD09B400FEFDCF81E08093C2028091E1
:1059B0001202811109C00E940F0A0E94650A80919B
:1059C000E20084608093E2008091E10080FF17C0D4
:1059D0008091E20080FF13C08091E2008E7F80936F
:1059E000E2008091E20080618093E2008091D80023
:1059F00080628093D80019BC85E08093C2028091B8
:105A0000E10084FF29C08091E20084FF25C080E18D
:105A100089BD82E189BD09B400FEFDCF8091D80027
:105A20008F7D8093D8008091E1008F7E8093E1008C
:105A30008091E2008F7E8093E2008091E20081609D
:105A40008093E20080911102882309F447C084E02A
:105A50008093C2028091C2028091E10083FF27C03F
:105A60008091E20083FF23C08091E100877F8093D3
:105A7000E10082E08093C202109211028091E10065
:105A80008E7F8093E1008091E2008E7F8093E20020
:105A90008091E20080618093E20042E060E080E07B
:105AA0000E942E0A8091F00088608093F000FF91A0
:105AB000EF91BF91AF919F918F917F916F915F9186
:105AC0004F913F912F910F900FBE0F901F901895FF
:105AD00019BC1092C2021092120276CF8091E3009C
